:020000040800F2
:10000000D84700209D060008FD060008FD060008F0
:10001000FD060008FD060008FD06000800000000BF
:10002000000000000000000000000000FD060008C5
:10003000FD06000800000000FD060008A13C0008C5
:10004000FD060008FD060008FD060008FD06000884
:10005000FD060008FD060008FD060008FD06000874
:10006000FD060008FD060008FD060008FD06000864
:10007000FD060008FD060008FD060008FD06000854
:10008000FD060008FD060008FD060008FD06000844
:10009000FD060008FD060008FD060008FD06000834
:1000A000FD060008FD060008FD060008FD06000824
:1000B000FD060008FD060008FD060008FD06000814
:1000C000FD060008FD060008FD060008FD06000804
:1000D000FD060008FD2D0008FD060008B92D0008EA
:1000E000FD060008FD060008FD06000800000000EF
:1000F0000000000000000000000000000000000000
:1001000000000000000000005FF808F110B5054C89
:10011000237833B9044B13B10448AFF300800123B3
:10012000237010BD50040020000000006C42000845
:10013000084B10B51BB108490848AFF300800848C8
:10014000036803B910BD074B002BFBD0BDE810407E
:10015000184700BF00000000540400206C42000853
:100160004C0400200000000080B500AF154A154B7C
:100170001B6843F0010313601249124B5A68124B7B
:1001800013404B600F4A0F4B1B6823F0847323F41A
:10019000803313600B4A0B4B1B6823F480231360DE
:1001A000084A084B5B6823F4FE035360054B4FF489
:1001B0001F029A6000F00CF8044B4FF000629A6046
:1001C00000BF80BD001002400000FFF800ED00E01D
:1001D00080B500AF00F002F800BF80BD80B483B0EE
:1001E00000AF00237B6000233B603A4A394B1B6819
:1001F00043F480331360374B1B6803F400333B60D8
:100200007B6801337B603B68002B03D17B68B3F5CF
:10021000A06FF0D12F4B1B6803F40033002B02D0EA
:1002200001233B6001E000233B603B68012B4BD185
:10023000294A294B1B6843F010031360264A264BBA
:100240001B6823F003031360234A234B1B6843F00E
:10025000020313601F4A1F4B5B6853601D4A1D4B0E
:100260005B6853601B4A1B4B5B6843F480635360BD
:10027000184A184B5B6823F47C135360154A154BDE
:100280005B6843F4E8135360124A124B1B6843F057
:100290008073136000BF0F4B1B6803F00073002BCB
:1002A000F9D00C4A0B4B5B6823F003035360094AF7
:1002B000084B5B6843F00203536000BF054B5B686B
:1002C00003F00C03082BF9D100BF0C37BD4680BCEE
:1002D000704700BF001002400020024080B483B08D
:1002E00000AF4FF4FA537B6002E07B68013B7B6018
:1002F0007B68002BF9D100BF0C37BD4680BC70472E
:1003000080B500AF134A134B5B685360114A114B21
:100310001B6843F0111343F4885313600D4A0D4BCF
:100320005B6853600B4A0B4B1B6823F0EE1323F4FE
:100330006E43136000F080F800220121012000F0DC
:1003400049F800F03FF80021062000F0B1F800BFA6
:1003500080BD00BF0008014080B582B000AF0346F9
:100360000A46FB711346BB71BB79002B08D1FB79A0
:1003700063F07F03DBB20021184600F099F807E034
:10038000FB7963F03F03DBB20021184600F090F8E0
:1003900000BF0837BD4680BD80B582B000AF786031
:1003A00008E07B681B780121184600F081F87B6823
:1003B00001337B607B681B78002BF2D100BF0837CC
:1003C000BD4680BD80B500AF0021012000F070F86F
:1003D00000BF80BD80B582B000AF0346FB710B4605
:1003E000BB7113467B71FB79002B04D100210820DF
:1003F00000F05EF81BE0BB79002B0CD17B79002B61
:1004000004D100210C2000F053F810E000210D2051
:1004100000F04EF80BE07B79002B04D100210E2078
:1004200000F046F803E000210F2000F041F800BF83
:100430000837BD4680BD00BF80B500AF1B4B4FF4F1
:100440007C121A61194B02221A61184B10221A6190
:10045000FFF744FF154B4FF480121A61FFF73EFF80
:10046000124B4FF47C121A61104B02221A610F4B8F
:1004700010221A61FFF732FF0C4B4FF480121A6101
:10048000FFF72CFF094B4FF47C121A61074B08222F
:100490001A61064B10221A61FFF720FF034B4FF43D
:1004A00080121A61FFF71AFF00BF80BD00080140EB
:1004B00080B582B000AF03460A46FB711346BB719C
:1004C000334B4FF47C121A61BB79002B02D0304BB6
:1004D00020221A61FB7903F01003002B02D02C4B71
:1004E00001221A61FB7903F02003002B02D0284B74
:1004F00002221A61FB7903F04003002B02D0244B47
:1005000004221A6197F90730002B02DA204B0822E7
:100510001A611F4B10221A61FFF7E0FE1C4B4FF4CB
:1005200080121A61FFF7DAFE194B4FF470221A613C
:10053000FB7903F00103002B02D0154B01221A6155
:10054000FB7903F00203002B02D0114B02221A6147
:10055000FB7903F00403002B02D00D4B04221A6137
:10056000FB7903F00803002B02D0094B08221A6123
:10057000074B10221A61FFF7B1FE054B4FF48012B2
:100580001A61FFF7ABFE00BF0837BD4680BD00BF54
:100590000008014080B582B000AF78607868FFF74E
:1005A000FBFE00BF0837BD4680BD00BF80B588B0E8
:1005B00000AF78600123BB610023FB77786800F00F
:1005C0004DF80346013BBB77BB7F013307F12002A7
:1005D0001344002203F8182C1FE07A681E4BA3FB7B
:1005E0000213D9080B469B000B445B00D31ABB6176
:1005F000BB7F5A1EBA771946BB69DBB23033DAB219
:1006000007F120030B4403F8182C7B68124AA2FB65
:100610000323DB087B600123FB777B68002BDCD1A5
:100620007B68002B0FD1FB7F002B0CD1BB7F07F128
:1006300020021344302203F8182C07F1080318464F
:10064000FFF7AAFE04E007F108031846FFF7A4FE2F
:1006500000BF2037BD4680BDCDCCCCCC80B485B0AA
:1006600000AF78600023FB737B68002B0AD1012365
:100670000CE07B68084AA2FB0323DB087B60FB7B62
:100680000133FB737B68002BF3D1FB7B18461437D7
:10069000BD4680BC704700BFCDCCCCCC80B582B00D
:1006A00000AF114B7B60114B3B6007E03B681A1DAC
:1006B0003A607A68111D796012681A603B680C4ACA
:1006C0009342F3D30B480C494FF000028842B8BF65
:1006D00040F8042BFADBFFF747FD00F091F900BF6B
:1006E0000837BD4680BD00BF6C42000800000020F6
:1006F0005004002050040020D443002080B582B074
:1007000000AFFFF75FFE00237B6014E000210020B4
:10071000FFF722FE0B48FFF73DFF01210020FFF706
:100720001BFE0948FFF736FF4FF4FA7003F0C6FAD4
:100730007B6801337B607B684FF6E8529342E5D1DA
:10074000FEE700BF403E0008543E000880B489B078
:1007500000AF786039600023FB6100233B61002318
:10076000BB610023FB6000237B610023BB603B680F
:10077000DB7803F00F03FB613B68DB7803F01003C9
:10078000002B05D03B689B781A46FB691343FB613D
:100790003B681B88DBB2002B44D07B681B687B6105
:1007A0000023BB6138E00122BB6902FA03F3FB605E
:1007B0003B681B881A46FB6813403B613A69FB683B
:1007C0009A4226D1BB699B00FB600F22FB6802FAAC
:1007D00003F3BB60BB68DB437A6913407B61FA6952
:1007E000FB6802FA03F37A6913437B613B68DB78A9
:1007F000282B05D10122BB699A407B685A6108E029
:100800003B68DB78482B04D10122BB699A407B68A6
:100810001A61BB690133BB61BB69072BC3D97B6814
:100820007A691A603B681B88FF2B46D97B685B6836
:100830007B610023BB613AE0BB690833012202FA05
:1008400003F3FB603B681B881A46FB6813403B615F
:100850003A69FB689A4227D1BB699B00FB600F2273
:10086000FB6802FA03F3BB60BB68DB437A691340A1
:100870007B61FA69FB6802FA03F37A6913437B61CF
:100880003B68DB78282B05D1BB69083301229A40ED
:100890007B685A613B68DB78482B05D1BB6908331C
:1008A00001229A407B681A61BB690133BB61BB6955
:1008B000072BC1D97B687A695A6000BF2437BD46CF
:1008C00080BC704780B485B000AF78600B467B80F9
:1008D0000023FB810023BB607B689A687B88134000
:1008E000BB60BB68002B02D00123FB8101E0002329
:1008F000FB81FB8918461437BD4680BC704700BF9A
:1009000080B483B000AF78600B467B807A887B68C8
:100910001A6100BF0C37BD4680BC704780B483B0FD
:1009200000AF78600B467B807A887B685A6100BF95
:100930000C37BD4680BC704780B483B000AF03461F
:10094000FB71084997F907305B09FA7902F01F0239
:10095000012000FA02F241F8232000BF0C37BD4607
:1009600080BC704700E100E080B483B000AF034674
:100970003960FB7197F90730002B0BDA0D49FB79D1
:1009800003F00F03043B3A68D2B21201D2B20B4417
:100990001A7609E0084997F907303A68D2B212018D
:1009A000D2B20B4483F8002300BF0C37BD4680BC95
:1009B000704700BF00ED00E000E100E080B582B0CC
:1009C00000AF78607B68B3F1807F01D3012311E031
:1009D0000A4A7B6823F07F43013B53600F214FF0AD
:1009E000FF30FFF7C1FF054B00229A60034B07223F
:1009F0001A60002318460837BD4680BD10E000E0AD
:100A000080B582B000AF0023FB71634B00221A70E7
:100A1000624B00221A70624B30221A70614B002226
:100A20001A70614B08221A70604B4FF496721A804C
:100A30005F4B00221A705F4B00221A705E4B00223F
:100A40001A7000F0CFF8C82003F038F900F052F91E
:100A5000FFF756FC00F0C4F900F062F9FFF7B2FCB2
:100A600000210020FFF778FC5448FFF793FD4FF476
:100A7000FA6003F023F901210020FFF76DFC5048D4
:100A8000FFF788FD4FF4FA6003F018F9FFF79AFCBE
:100A900000F08AFA03461A464A4B1A70494B1B78F3
:100AA000042B0BD0082B11D0002B17D100210020D4
:100AB000FFF752FC4448FFF76DFD0FE000210020D6
:100AC000FFF74AFC4148FFF765FD07E000210020E1
:100AD000FFF742FC3E48FFF75DFD00BF012100200B
:100AE000FFF73AFC3B48FFF755FD3B4B5B683B4A41
:100AF000A2FB03239B0C1846FFF758FD3848FFF76D
:100B000049FD40F2DC5003F0D9F8FB79002B03D10A
:100B100000F07AFE0346FB71FB79013B062BF4D80B
:100B200001A252F823F000BF450B0008550B000846
:100B30005F0B0008690B0008790B0008830B0008A5
:100B40008D0B0008144B1B78184601F0FDFA0023AA
:100B5000FB7120E001F064FD0023FB711BE001F05C
:100B6000E5FD0023FB7116E0124B1B78184602F0DE
:100B700077FB0023FB710EE002F0CAF80023FB7143
:100B800009E001F087FF0023FB7104E002F06AFD39
:100B90000023FB7100BFB8E7A4310020D41A002065
:100BA0009C2D0020B4430020A81A0020AC1A00207D
:100BB000CE4300209E2D0020DC190020683E000856
:100BC000783E0008D51A0020843E0008943E0008B4
:100BD000A43E0008B83E0008A02D002083DE1B4381
:100BE000C43E000880B500AF00F010F94FF480302B
:100BF00000F03AF900F066F903461A463A4B1A70CB
:100C0000394B1B78012B2AD1802000F0DBF94FF4FF
:100C1000806000F0F3F94FF4E06000F00BFA4FF45D
:100C2000004000F023FA4FF4E0114FF4803000F060
:100C300071F9012000F08CF900BF392000F010FBA1
:100C40000346002BF9D0022000F092F900BF00F01B
:100C5000ABF90346082BFAD1012000F0F1FA234842
:100C600000F020FA214B5B68214AA2FB03239B0979
:100C70001846FFF7A3FE0121042000F0C3FA01216A
:100C8000082000F0BFFA0121102000F0BBFA01217A
:100C9000202000F0B7FA0121402000F0B3FA012132
:100CA000802000F0AFFA01214FF4807000F0AAFA22
:100CB00001214FF4007000F0A5FA0121042000F09A
:100CC000A1FA0121082000F09DFA0121102000F076
:100CD00099FA0121202000F095FA01214FF40070CB
:100CE00000F090FA00BF80BD9D2D0020A02D0020B7
:100CF000D34D621080B582B000AF4FF46043BB802B
:100D00002823FB710123BB713B1D19460348FFF7E4
:100D10001DFD00BF0837BD4680BD00BF001001406B
:100D200080B586B000AFFFF74DFB00210020FFF734
:100D300013FB2848FFF72EFC4FF4FA7002F0BEFFB9
:100D40000123BB820023FB750323BB7507F114034A
:100D500019462148FFF7FAFC3B46184600F00CFB09
:100D600000233B6000233B7101237B714FF4602320
:100D7000BB600023FB600B233B743B4619461748BE
:100D800000F0A8FA0121154800F012FB002301220F
:100D90000021124800F094FB104800F025FB00BF32
:100DA0000E4800F031FB0346002BF9D10B4800F050
:100DB00043FB00BF094800F04FFB0346002BF9D16D
:100DC000002301220621054800F07AFB00BF1837F6
:100DD000BD4680BDC83E0008000801400024014017
:100DE00080B500AFFFF7EEFA00210020FFF7B4FA5C
:100DF0000548FFF7CFFB4FF4FA7002F05FFF2720A2
:100E0000FFF79AFD00BF80BDD43E000880B400AF5C
:100E1000134A134B1B6843F0010313601049104B36
:100E20005A68104B13404B600D4A0D4B1B6823F062
:100E3000847323F480331360094A094B1B6823F43D
:100E400080231360064A064B5B6823F4FE0353605D
:100E5000034B4FF41F029A6000BFBD4680BC704731
:100E6000001002400000FFF880B483B000AF78604B
:100E7000134A134B1B6823F480331360104A104B42
:100E80001B6823F4802313607B68B3F5803F03D095
:100E9000B3F5802F07D00DE0094A094B1B6843F4D6
:100EA0008033136006E0064A054B1B6843F4A02319
:100EB000136000BF00BF0C37BD4680BC704700BF49
:100EC0000010024080B582B000AF00233B600023D9
:100ED000FB710023BB71312000F0C2F90346BB71E6
:100EE0003B6801333B603B68B3F5A06F02D0BB7930
:100EF000002BF0D0312000F0B3F90346002B02D0D4
:100F00000123FB7101E00023FB71FB7918460837D0
:100F1000BD4680BD80B485B000AF786039600023E5
:100F2000FB600A4B5B68FB60FB6823F47C13FB608F
:100F30007A683B681343FA681343FB60034AFB6813
:100F4000536000BF1437BD4680BC7047001002409C
:100F500080B483B000AF0346FB71044AFB79136091
:100F600000BF0C37BD4680BC704700BF60004242E6
:100F700080B485B000AF78600023FB60094B5B68EC
:100F8000FB60FB6823F00303FB60FA687B68134394
:100F9000FB60044AFB68536000BF1437BD4680BC49
:100FA000704700BF0010024080B400AF044B5B6884
:100FB000DBB203F00C03DBB21846BD4680BC7047C1
:100FC0000010024080B485B000AF78600023FB6061
:100FD000094B5B68FB60FB6823F0F003FB60FA6879
:100FE0007B681343FB60044AFB68536000BF1437FF
:100FF000BD4680BC704700BF0010024080B485B081
:1010000000AF78600023FB60094B5B68FB60FB6806
:1010100023F4E063FB60FA687B681343FB60044AD7
:10102000FB68536000BF1437BD4680BC704700BFEB
:101030000010024080B485B000AF78600023FB60F0
:10104000094B5B68FB60FB6823F46053FB607B68C3
:10105000DB00FA681343FB60034AFB68536000BF80
:101060001437BD4680BC70470010024080B485B084
:1010700000AF78600023FB60094B5B68FB60FB6896
:1010800023F44043FB60FA687B681343FB60044A27
:10109000FB68536000BF1437BD4680BC704700BF7B
:1010A0000010024080B487B000AF786000237B61FD
:1010B00000233B610023FB600023BB604C4B5B685B
:1010C00003F00C037B617B69042B07D0082B09D04C
:1010D000002B33D17B68474A1A6033E07B68454A6E
:1010E0001A602FE0424B5B6803F470133B61404B86
:1010F0005B6803F48033FB603B699B0C02333B610C
:10110000FB68002B06D13B693B4A02FB03F27B687C
:101110001A6017E0364B5B6803F40033002B06D0EF
:101120003B69354A02FB03F27B681A600AE03B69BF
:10113000304A02FB03F27B681A6003E07B682D4AA9
:101140001A6000BF2A4B5B6803F0F0037B617B6988
:101150001B097B61294A7B6913441B78DBB2BB60A6
:101160007B681A68BB68DA407B685A60204B5B6812
:1011700003F4E0637B617B691B0A7B611F4A7B6927
:1011800013441B78DBB2BB607B685A68BB68DA40EB
:101190007B689A60164B5B6803F460537B617B69E4
:1011A000DB0A7B61154A7B6913441B78DBB2BB60A9
:1011B0007B685A68BB68DA407B68DA600C4B5B6816
:1011C00003F440437B617B699B0B7B610C4A7B6929
:1011D00013441B78DBB2BB607B68DA68BB68B2FB88
:1011E000F3F27B681A6100BF1C37BD4680BC7047B4
:1011F0000010024000127A0000093D0000000020AB
:101200001000002080B483B000AF78600B46FB7004
:10121000FB78002B06D00949084B9A697B68134379
:101220008B6106E00549054B9A697B68DB431340F7
:101230008B6100BF0C37BD4680BC70470010024078
:1012400080B483B000AF0346FB71044AFB7913609E
:1012500000BF0C37BD4680BC704700BF4C00424207
:1012600080B487B000AF0346FB710023FB6000230E
:101270007B610023FB74FB795B09DBB2FB60FB68DD
:10128000012B03D1124B1B687B6109E0FB68022B29
:1012900003D10F4B1B6A7B6102E00D4B5B6A7B61E4
:1012A000FB7903F01F03FB607A69FB6822FA03F302
:1012B00003F00103002B02D00123FB7401E00023A3
:1012C000FB74FB7C18461C37BD4680BC704700BFD2
:1012D0000010024080B485B000AF78603960002310
:1012E000FB600023FB727B685B68FB60FB6823F498
:1012F000702323F48073FB603B681A683B681B799A
:101300001B021343FA681343FB607B68FA685A6058
:101310007B689B68FB60FA68164B1340FB603B6878
:10132000DA683B689B681A433B685B795B00134350
:10133000FA681343FB607B68FA689A607B68DB6A33
:10134000FB60FB6823F47003FB603B681B7C013B84
:10135000DAB2FB7A1343FB72FB7A1B05FA6813437C
:10136000FB607B68FA68DA6200BF1437BD4680BC58
:10137000704700BFFDF7F1FF80B483B000AF786025
:101380007B6800221A607B6800221A717B68002249
:101390005A717B6800229A607B680022DA607B6861
:1013A00001221A7400BF0C37BD4680BC704700BFD5
:1013B00080B483B000AF78600B46FB70FB78002BE5
:1013C00006D07B689B6843F001027B689A6005E069
:1013D0007B689B6823F001027B689A6000BF0C3732
:1013E000BD4680BC704700BF80B483B000AF78605A
:1013F0007B689B6843F008027B689A6000BF0C37EB
:10140000BD4680BC704700BF80B485B000AF786037
:101410000023FB737B689B6803F00803002B02D05A
:101420000123FB7301E00023FB73FB7B1846143799
:10143000BD4680BC704700BF80B483B000AF786009
:101440007B689B6843F004027B689A6000BF0C379E
:10145000BD4680BC704700BF80B485B000AF7860E7
:101460000023FB737B689B6803F00403002B02D00E
:101470000123FB7301E00023FB73FB7B1846143749
:10148000BD4680BC704700BF80B483B000AF7860B9
:101490000B46FB70FB78002B06D07B689B6843F4FF
:1014A000A0027B689A6005E07B689B6823F4A00239
:1014B0007B689A6000BF0C37BD4680BC704700BF98
:1014C00080B485B000AF7860084611461A460346DE
:1014D000FB700B46BB7013467B700023FB60002340
:1014E000BB60FB78092B23D97B68DB68FB60FB784A
:1014F000A3F10A0213465B001344072202FA03F326
:10150000BB60BB68DB43FA681340FB607978FB780B
:10151000A3F10A0213465B00134401FA03F3BB6014
:10152000FA68BB681343FB607B68FA68DA601EE008
:101530007B681B69FB60FA7813465B001344072243
:1015400002FA03F3BB60BB68DB43FA681340FB603D
:101550007978FA7813465B00134401FA03F3BB6011
:10156000FA68BB681343FB607B68FA681A61BB7852
:10157000062B21D87B685B6BFB60BB785A1E134639
:101580009B0013441F2202FA03F3BB60BB68DB43DA
:10159000FA681340FB60F978BB785A1E13469B002B
:1015A000134401FA03F3BB60FA68BB681343FB60A2
:1015B0007B68FA685A6347E0BB780C2B21D87B68BC
:1015C0001B6BFB60BB78DA1F13469B0013441F2282
:1015D00002FA03F3BB60BB68DB43FA681340FB60AD
:1015E000F978BB78DA1F13469B00134401FA03F322
:1015F000BB60FA68BB681343FB607B68FA681A63D8
:1016000022E07B68DB6AFB60BB78A3F10D02134626
:101610009B0013441F2202FA03F3BB60BB68DB4349
:10162000FA681340FB60F978BB78A3F10D0213460A
:101630009B00134401FA03F3BB60FA68BB681343D1
:10164000FB607B68FA68DA6200BF1437BD4680BC75
:10165000704700BF80B483B000AF78607B68DB6CFC
:101660009BB218460C37BD4680BC704780B485B02D
:1016700000AF78600B46FB700023FB737B681A6831
:10168000FB781340002B02D00123FB7301E0002301
:10169000FB73FB7B18461437BD4680BC704700BF08
:1016A00080B487B000AF78600B467B8013467B70B8
:1016B00000233B610023FB600023BB6000237B61B0
:1016C0007B687B617B88DBB25B09DBB23B617B883B
:1016D00003F01F03FB600122FB6802FA03F3BB6007
:1016E0003B69012B03D17B690C337B6109E03B69CA
:1016F000022B03D17B6910337B6102E07B691433D9
:101700007B617B78002B06D07B697A691168BA68A7
:101710000A431A6006E07B697A691168BA68D243A5
:101720000A401A6000BF1C37BD4680BC704700BF2E
:1017300080B483B000AF78600B467B807B88C3F3B6
:1017400008039AB27B689A8000BF0C37BD4680BC04
:10175000704700BF80B483B000AF78607B689B881F
:101760009BB2C3F308039BB218460C37BD4680BC3E
:10177000704700BF80B485B000AF78600B467B80B7
:101780000023FB737B681B889AB27B8813409BB253
:10179000002B02D00123FB7301E00023FB73FB7BD2
:1017A00018461437BD4680BC704700BF80B582B074
:1017B00000AF7860396007E03B685A1C3A601B78DC
:1017C0001946786800F008F83B681B78002BF3D1C5
:1017D00000BF0837BD4680BD80B582B000AF7860DD
:1017E0000B46FB7000BF80217868FFF7C3FF0346FC
:1017F000002BF8D0FB789BB219467868FFF798FF6A
:1018000000BF0837BD4680BD80B582B000AF002361
:10181000FB710023BB7100237B7100233B71FEF73A
:10182000D1FD00210020FEF797FDC948FEF7B2FE6A
:1018300001210020FEF790FDC648FEF7ABFEC8E18F
:101840007B79072B00F2C08101A252F823F000BF80
:101850007118000899180008071900087519000880
:10186000E3190008511A0008BF1A00082D1B0008D0
:1018700000BF4FF40051B848FFF724F80346BB718E
:10188000BB79002BF5D001237B710023BB714FF492
:10189000C87002F013FA97E1FEF794FD00210020D2
:1018A000FEF75AFDAD48FEF775FE01210020FEF758
:1018B00053FDAB48FEF76EFE10E04FF40041A64822
:1018C000FFF700F803463B714FF40051A248FEF7C2
:1018D000F9FF0346BB71962002F0F0F9BB79002BAB
:1018E00002D13B79002BE8D0BB79012B01D1022337
:1018F0007B713B79012B01D10123FB7100233B71EB
:101900000023BB7160E1FEF75DFD00210020FEF7C2
:1019100023FD9448FEF73EFE01210020FEF71CFD4A
:101920008F48FEF737FE10E04FF400418A48FEF77B
:10193000C9FF03463B714FF400518748FEF7C2FFD1
:101940000346BB71962002F0B9F9BB79002B02D196
:101950003B79002BE8D0BB79012B01D103237B71AC
:101960003B79012B01D10223FB7100233B71002342
:10197000BB7129E1FEF726FD00210020FEF7ECFCFB
:101980007948FEF707FE01210020FEF7E5FC7448C8
:10199000FEF700FE10E04FF400416F48FEF792FFA3
:1019A00003463B714FF400516B48FEF78BFF034633
:1019B000BB71962002F082F9BB79002B02D13B79F2
:1019C000002BE8D0BB79012B01D104237B713B793B
:1019D000012B01D10323FB7100233B710023BB7159
:1019E000F2E0FEF7EFFC00210020FEF7B5FC5F48B7
:1019F000FEF7D0FD01210020FEF7AEFC5848FEF7AF
:101A0000C9FD10E04FF400415348FEF75BFF034669
:101A10003B714FF400515048FEF754FF0346BB7131
:101A2000962002F04BF9BB79002B02D13B79002BB9
:101A3000E8D0BB79012B01D105237B713B79012BC8
:101A400001D10423FB7100233B710023BB71BBE078
:101A5000FEF7B8FC00210020FEF77EFC4448FEF7AC
:101A600099FD01210020FEF777FC3D48FEF792FD2D
:101A700010E04FF400413848FEF724FF03463B7165
:101A80004FF400513448FEF71DFF0346BB7196200A
:101A900002F014F9BB79002B02D13B79002BE8D07E
:101AA000BB79012B01D106237B713B79012B01D13D
:101AB0000523FB7100233B710023BB7184E0FEF71B
:101AC00081FC00210020FEF747FC2A48FEF762FD5A
:101AD00001210020FEF740FC2148FEF75BFD10E0ED
:101AE0004FF400411C48FEF7EDFE03463B714FF4F6
:101AF00000511948FEF7E6FE0346BB71962002F03E
:101B0000DDF8BB79002B02D13B79002BE8D0BB7903
:101B1000012B01D107237B713B79012B01D10623D6
:101B2000FB7100233B710023BB714DE0FEF74AFCC3
:101B300000210020FEF710FC0F48FEF72BFD0121CD
:101B40000020FEF709FC0648FEF724FD27E000BF51
:101B5000E03E0008EC3E000800100140003F000895
:101B6000083F0008183F0008203F0008283F0008F1
:101B7000303F00083C3F0008443F00084FF400415C
:101B80001848FEF79FFE03463B714FF4005115487D
:101B9000FEF798FE0346BB71962002F08FF8BB79E2
:101BA000002B02D13B79002BE8D0BB79012B01D16E
:101BB00000237B713B79012B01D10723FB710023AB
:101BC0003B710023BB7100BFFB79002B01D0FB7977
:101BD00004E0FB79002B3FF433AE012318460837AD
:101BE000BD4680BD0010014080B400AF9C4B012277
:101BF0001A809B4B02225A80994B04229A80984B60
:101C00000822DA80964B10221A81954B20225A81A5
:101C1000934B40229A81924B8022DA81904B4FF471
:101C200080721A828E4B4FF400725A828C4B4FF4A2
:101C300080629A828A4B0122DA82894B02221A83BD
:101C4000874B4FF400625A83854B4FF480429A834E
:101C5000834B4FF40042DA83814B20221A84804B5D
:101C60004FF480625A847F4B7F4A1A607D4B7E4AD4
:101C70005A607C4B7C4A9A607A4B7B4ADA60794B9B
:101C8000794A1A61774B784A5A61764B764A9A615B
:101C9000744B754ADA61734B734A1A62714B724A1C
:101CA0005A62704B704A9A626E4B704ADA626D4BA0
:101CB0006E4A1A636B4B6D4A5A636A4B6B4A9A635E
:101CC000684B6A4ADA63674B684A1A64654B674A2D
:101CD0005A64674B644A1A60664B01221A80654B4E
:101CE00002225A80634B04229A80624B0822DA80D7
:101CF000604B10221A815F4B20225A815D4B40229B
:101D00009A815C4B8022DA815A4B4FF480721A829E
:101D1000584B4FF400725A82564B4FF480629A82AD
:101D2000554B00221A70544B01225A70524B02221A
:101D30009A70514B0322DA704F4B04221A714E4BAA
:101D400005225A714C4B06229A714B4B0722DA71CD
:101D5000494B08221A72484B09225A72464B0A22F2
:101D60009A723F4B02221A803D4B04225A803C4B10
:101D70004FF400429A803A4B4022DA80384B80225E
:101D80001A81374B4FF480725A81354B4FF4005211
:101D90009A81334B4FF48042DA81314B4FF4004249
:101DA0001A822F4B10225A822D4B20229A822C4BC2
:101DB0004FF40072DA822A4B4FF480721A83284B58
:101DC0004FF480525A83264B01229A83244B0122DE
:101DD000DA83234B02221A84214B04225A84204B9B
:101DE0004FF400729A841E4B4FF48062DA841C4BCD
:101DF0004FF400621A851A4B4FF480525A85184BE3
:101E00004FF400529A85164B4FF48042DA85144BFA
:101E10004FF400421A86124B01225A86104B0422BC
:101E20009A860F4B0822DA860D4B10221A870C4B2C
:101E300020225A870A4B4FF400629A87084B4FF4CE
:101E40008052DA87064B4FF48042A3F84020044BBF
:101E50000122A3F84220024B0222A3F844200DE005
:101E60007C070020E819002000080140000C014018
:101E7000D81A0020B8430020A83100206F4B04225C
:101E8000A3F846206D4B0822A3F848206B4B102284
:101E9000A3F84A20694B2022A3F84C20674B8022EC
:101EA000A3F84E20654B4FF48072A3F85020634B8B
:101EB0004FF40072A3F85220604B4FF48062A3F8F5
:101EC00054205E4B4FF40062A3F856205B4B4FF456
:101ED0008052A3F85820594B4FF40052A3F85A20CF
:101EE000564B4FF48042A3F85C20544B4FF4004211
:101EF000A3F85E20524B534A1A60514B514A5A6024
:101F00004F4B514A9A604E4B4E4ADA604C4B4D4A09
:101F10001A614B4B4B4A5A61494B4A4A9A61484BAA
:101F2000484ADA61464B474A1A62454B454A5A626B
:101F3000434B444A9A62424B424ADA62404B434A1C
:101F40001A633F4B3F4A5A633D4B3E4A9A633C4BB0
:101F50003E4ADA633A4B3D4A1A64394B3B4A5A646B
:101F6000374B3A4A9A64364B384ADA64344B374A2C
:101F70001A65334B354A5A65314B344A9A65304BB2
:101F8000324ADA652E4B314A1A662D4B2E4A5A6672
:101F90002B4B2D4A9A662A4B2B4ADA66284B2A4A43
:101FA0001A67274B284A5A67254B274A9A67244BBA
:101FB000254ADA67224B244AC3F88020204B244A62
:101FC000C3F884201E4B224AC3F888201C4B204AA9
:101FD000C3F88C201A4B1E4AC3F89020184B1C4A99
:101FE000C3F89420164B1A4AC3F89820144B184A89
:101FF000C3F89C20124B164AC3F8A020104B144A79
:10200000C3F8A4200E4B124AC3F8A8200C4B104A68
:10201000C3F8AC200A4B0E4AC3F8B020084B0C4A58
:10202000C3F8B420064B0A4AC3F8B820044B084A48
:10203000C3F8BC2000BFBD4680BC70477C070020B1
:10204000E819002000180140001C0140000C01406C
:102050000020014080B483B000AF0023FB7121E079
:102060000023BB7118E0FA79B979124813465B0076
:1020700013441B010B44002220F81320FA79B9798C
:102080000D4813465B0013441B010B44002220F84B
:102090001320BB790133BB71BB792F2BE3D9FB79BB
:1020A0000133FB71FB792F2BDAD900BF0C37BD460A
:1020B00080BC7047DC070020B431002080B582B0BE
:1020C00000AFFFF7C7FF1E4B00221A701D4B1B7895
:1020D000002B16D10023FB8010E000F063F8FB8892
:1020E000184600F0B7F8FB88184600F0E1F8FB88C6
:1020F000184600F0C5F9FB880133FB80FB882F2BC5
:10210000EBD9104B1B78012B16D10023FB8010E07C
:1021100000F048F8FB88184600F09CF8FB88184649
:1021200000F0C6F8FB88184600F0AAF9FB880133D6
:10213000FB80FB880A2BEBD900BF0837BD4680BD6A
:10214000CF430020DC19002080B582B000AF0346E9
:10215000FB71FEF737F900210020FEF7FDF80F486C
:10216000FEF718FAFFF740FDFB79002B0DD103E0D5
:10217000FFF7A4FF00F09EF94FF480410848FEF7F6
:10218000A1FB0346002BF3D003E0FFF797FF00F01D
:1021900091F900BF0837BD4680BD00BF4C3F000825
:1021A0000010014080B582B000AF00237B6017E0D3
:1021B0000F4B2822DA700F4A7B6832F813309AB23C
:1021C0000B4B1A800A4B03229A700B4A7B6852F819
:1021D000233007491846FEF7B9FA7B6801337B6064
:1021E0007B682F2BE4DD00BF0837BD4680BD00BFF4
:1021F000B82D00207C070020E819002080B582B0AF
:1022000000AF00237B6017E00F4B2822DA700F4AE3
:102210007B6832F813309AB20B4B1A800A4B0322B8
:102220009A700B4A7B6852F8233007491846FEF72C
:102230008DFA7B6801337B607B682F2BE4DD00BF68
:102240000837BD4680BD00BFB82D00207C070020A8
:10225000E819002080B582B000AF0346FB80FB8800
:102260000F4A32F813309AB20E4B1A800D4B1022DF
:10227000DA700C4B03229A700A490B48FEF766FA93
:10228000FB880A4A52F82300FB88054A32F81330CB
:102290009BB21946FEF734FB00BF0837BD4680BD30
:1022A0007C070020B42D002000080140E819002020
:1022B000B0B586B000AF0346FB80694B00221A70B0
:1022C00000233B6140F6C413FB81664B1B78002B57
:1022D00041D13CE0624B1B789BB2FA889A4221D0F4
:1022E000614B1B781C465E4B1B781D465C4B1B7874
:1022F0001A465E4B53F82220594B1B7819465C4B0B
:1023000033F811309BB219461046FEF7DBFA03464C
:102310001946584A23465B0023441B012B4422F8EC
:1023200013100EE0504B1B7819464D4B1B78184686
:10233000504A0B465B000B441B010344002122F86A
:102340001310474B1B780133DAB2454B1A70444BDC
:102350001B782F2BBED9434B1B78012B69D1404BE7
:1023600000221A7061E03E4B1B789BB2FA889A42B9
:1023700046D03B4B1B789BB20121184601F02EF949
:1023800000F086FC0346FB82FA8AFB899A4201D25E
:10239000FB89FB82FA8AFB89D31A374A1288934257
:1023A0001EDD314B1B7819462D4B1B781846314AE0
:1023B0000B465B000B441B010344012122F8131060
:1023C000294B1B781A46264B1B7818462B49134677
:1023D0005B0013441B010344FA8A21F813201EE01A
:1023E000214B1B7819461E4B1B781846214A0B4679
:1023F0005B000B441B010344002122F813100EE084
:10240000194B1B781946164B1B781846194A0B4670
:102410005B000B441B010344002122F81310104BF6
:102420001B780133DAB20E4B1A700D4B1B780A2B56
:1024300099D9FB880D4A52F82300FB880C4A32F8E0
:1024400013309BB21946FEF769FA074B1B7801332C
:10245000DAB2054B1A7000BF1837BD46B0BD00BFD9
:10246000A91A0020DC190020CF430020E819002021
:102470007C070020DC070020AC1A00209C1B0020F9
:1024800080B582B000AF0346FB80FB88074A52F854
:102490002300FB88064A32F813309BB21946FEF738
:1024A0003DFA00BF0837BD4680BD00BFE8190020D7
:1024B0007C07002080B582B000AF0123FB710023B0
:1024C000BB710023FB700023BB7000237B710023D2
:1024D0003B7100237B716CE000233B7161E07A79F2
:1024E0003979464813465B0013441B010B4430F80E
:1024F0001330012B52D10023FB71BB790133BB7127
:10250000FDF760FF00210020FDF726FF3C48FEF7A5
:1025100041F800210620FDF71FFFBB791846FEF7A2
:1025200045F801210020FDF717FF7B791846FEF7DB
:102530003DF801210420FDF70FFF3248FEF72AF88D
:1025400001210620FDF708FF3B791846FEF72EF81B
:102550002D4B1B78012B10D101210920FDF7FCFE2A
:102560007A793979294813465B0013441B010B44DF
:1025700030F813301846FEF719F84FF4804124481C
:10258000FEF7A0F90346DAB2224B1A70214B1B78F2
:10259000012B0AD04FF42F7001F090FB3B790133EF
:1025A0003B713B792F2B9AD900E000BF7B79013337
:1025B0007B717B792F2B8FD9FB79012B1AD1164B8D
:1025C0001B78012B16D1FDF7FDFE00210020FDF741
:1025D000C3FE1248FDF7DEFF00BF4FF480410C48F8
:1025E000FEF770F90346DAB20A4B1A70094B1B78F2
:1025F000002BF2D000BF0837BD4680BDDC070020AD
:10260000603F0008683F0008DC1900209C1B002088
:10261000001001406C040020A43100206C3F000831
:1026200080B500AFFDF7CEFE00210020FDF794FE3F
:102630000948FDF7AFFFFFF7D7FAFFF73FFD074B5C
:102640001A78074B1B781946104600F00BF800F07B
:1026500041F800BF80BD00BF7C3F0008B4430020AC
:10266000A81A002080B584B000AF03460A46FB716B
:102670001346BB710023BB73144B00221A60FB7915
:10268000FB7319E0FB7B124A03F54C7332F81330ED
:10269000012B0BD1BB7B1946022001F02BFB03461B
:1026A0001A460A4B1B681344084A1360BB7B01336C
:1026B000BB73FB7B0133FB73FA7BB979FB790B446A
:1026C0009A42DFDD00BF1037BD4680BDE019002013
:1026D000DC07002080B500AFFDF774FE002100206C
:1026E000FDF73AFE0D48FDF755FF01210020FDF7EB
:1026F00033FE0B4B1B681846FDF758FF00BF4FF425
:1027000080410848FEF7DEF80346DAB2064B1A703D
:10271000054B1B78002BF2D000BF80BD8C3F00081A
:10272000E0190020001001406C04002080B5ADF5D8
:10273000905D82B000AFFDF745FE00210020FDF75F
:102740000BFEC948FDF726FFC84B00221A70FFF7A1
:102750004BFAFFF753FD00F093FB2F20FFF7A8FD86
:10276000002307F590521360002307F5905202F101
:1027700004021360002307F5905202F10402136073
:102780002DE0BB4907F590531A6813465B001344CC
:102790001B0107F5905202F104021268134431F84C
:1027A000130007F10802083A07F5905319680B4621
:1027B0005B000B441B0107F5905101F1040109680E
:1027C0000B44014622F8131007F5905303F104035C
:1027D0001B68013307F5905202F10402136007F5FC
:1027E000905303F104031B682F2BCADDFDF7EAFDAC
:1027F00000210020FDF7B0FD9E48FDF7CBFE23E150
:102800009A4B00221A70FFF7F9FC2F20FFF750FDBA
:10281000002307F5905202F104021360002307F52C
:10282000905202F10402136006E107F10802083A2F
:1028300007F5905319680B465B000B441B0107F525
:10284000905101F1040109680B4432F813108848D3
:1028500007F590531A6813465B0013441B0107F5F4
:10286000905202F104021268134430F81330994276
:1028700000F0D780FDF7A6FD07F5905303F10403A0
:102880001A687D4B1340002B03DA013B63F0010310
:102890000133002B06DC07F5905303F104031B689A
:1028A000002B03D100210020FDF756FD07F59053C2
:1028B00003F104031B6803F00103002B03D1012182
:1028C0000020FDF749FD6D48FDF764FE07F59053C4
:1028D00003F104031B681846FDF768FE6848FDF71E
:1028E00059FE07F5905303F104031B681B01654A69
:1028F00013441846FDF74EFE5D4907F590531A68DC
:1029000013465B0013441B0107F5905202F10402C9
:102910001268134431F81330012B23D107F590537B
:1029200003F104031A68544B1340002B03DA013BF4
:1029300063F001030133002B03DD00210D20FDF7BF
:102940000BFD07F5905303F104031B6803F001032B
:10295000002B03D101210D20FDF7FEFC4A48FDF7B5
:1029600019FE22E007F5905303F104031A68424B65
:102970001340002B03DA013B63F001030133002B0A
:1029800003DD00210D20FDF7E7FC07F5905303F16F
:1029900004031B6803F00103002B03D101210D2068
:1029A000FDF7DAFC3948FDF7F5FD002307F59052F5
:1029B00002F1040213602DE02D4907F590531A68C7
:1029C00013465B0013441B0107F5905202F1040209
:1029D0001268134431F8130007F10802083A07F5AA
:1029E000905319680B465B000B441B0107F590518F
:1029F00001F1040109680B44014622F8131007F5A0
:102A0000905303F104031B68013307F5905202F160
:102A10000402136007F5905303F104031B682F2B86
:102A2000CADD07F5905303F104031B68013307F572
:102A3000905202F10402136007F5905303F104036E
:102A40001B682F2B7FF7F1AE4FF480411048FDF744
:102A500039FF0346002B3FF4D3AE00BF07F5905774
:102A60000837BD4680BD00BF9C3F0008CF43002013
:102A7000DC070020A83F000801000080B43F0008E8
:102A8000B83F00087C040020BC3F0008C03F00089D
:102A90000010014080B582B000AF734B00221A7065
:102AA000FDF790FC00210020FDF756FC6F48FDF774
:102AB00071FD4FF4FA6001F001F96D4B6D4A1A6037
:102AC0006D4B01221A806C4B02225A806A4B042201
:102AD0009A80694B0822DA80674B10221A81664B74
:102AE00020225A81644B40229A81634B8022DA81F2
:102AF000614B4FF480721A825F4B4FF400725A821E
:102B00005D4B4FF480629A825C4B00221A705B4BE3
:102B100001225A70594B02229A70584B0322DA70E4
:102B2000564B04221A71554B05225A71534B0622FB
:102B30009A71524B0722DA71504B08221A724F4B8E
:102B400009225A724D4B0A229A724C4B1B789BB247
:102B50000121184600F042FD1FE000F099F80346FD
:102B6000FB8000210020FDF7F7FB4548FDF712FD33
:102B700001210020FDF7F0FBFB881846FDF716FD4C
:102B80004FF4FA6001F09AF84FF400413D48FDF728
:102B900099FE0346DAB2344B1A70334B1B78002B84
:102BA000DBD0314B00221A70344B5B789BB2012191
:102BB000184600F013FD1FE000F06AF80346FB80A2
:102BC00000210020FDF7C8FB2F48FDF7E3FC0121A1
:102BD0000020FDF7C1FBFB881846FDF7E7FC4FF42A
:102BE000FA6001F06BF84FF480412648FDF76AFE69
:102BF0000346DAB21C4B1A701B4B1B78002BDBD040
:102C0000194B00221A701D4B9B789BB2012118466C
:102C100000F0E4FC1FE000F03BF80346FB800021DD
:102C20000020FDF799FB1948FDF7B4FC01210020B5
:102C3000FDF792FBFB881846FDF7B8FC4FF4FA60ED
:102C400001F03CF84FF480410E48FDF73BFE03468F
:102C5000DAB2054B1A70044B1B78002BDBD000BF97
:102C60000837BD4680BD00BF6C040020D43F00087B
:102C7000D81A002000080140B8430020A8310020E5
:102C8000DC3F000800100140E83F0008F43F000866
:102C900080B500AF01210848FEF7F6FB00BF022116
:102CA0000548FEF7E3FC0346002BF8D00248FEF788
:102CB000D1FC0346184680BD0024014080B582B097
:102CC00000AF0023FB8000237B7100237B710CE0AD
:102CD000FFF7DEFF03467B80FA887B889A4201D2A9
:102CE0007B88FB807B7901337B717B79312BEFD93A
:102CF000FB88064AA2FB03231B099AB2FB881344F4
:102D0000FB80FB8818460837BD4680BD1F85EB5108
:102D100080B582B000AF012240F225511E48FEF777
:102D2000BFFC1E4B00221A601D4B00221A70FDF7DB
:102D300049FB00210020FDF70FFB1A48FDF72AFC94
:102D4000194B7B6020E0164B1B78012B0FD1FDF750
:102D500039FB00210020FDF7FFFA1448FDF71AFCAB
:102D600000210020FDF7F8FA0D4B00221A70796857
:102D70000948FEF71BFD4FF480410D48FDF7A2FD09
:102D80000346DAB20B4B1A700A4B1B78002BDAD0D1
:102D900000BF0837BD4680BD00480040E419002050
:102DA000981B00200040000814400008BC2D0020A3
:102DB000001001406C04002098B500AF20210B48A2
:102DC000FEF7D8FC0346012B0ED1094B1C68631C8F
:102DD000074A13600548FEF7BDFC0346DAB2054B0F
:102DE0001A55054B01221A7000BF98BD00480040DB
:102DF000E4190020BC2D0020981B002098B500AFDE
:102E000020210B48FEF7B6FC0346012B0ED1094BDF
:102E10001C68631C074A13600548FEF79BFC0346C9
:102E2000DAB2054B1A55054B01221A7000BF98BD46
:102E300000380140E4190020BC2D0020981B002020
:102E400080B485B000AF786039603B68BB60002318
:102E5000FB600AE0FB68BA681344FA6879680A44C0
:102E600012781A70FB680133FB60FB687A681344C0
:102E70001B78002BEED100BF1437BD4680BC7047D5
:102E800080B500AF84498548FFF7DAFF844985485B
:102E9000FFF7D6FF84498548FFF7D2FF844985486C
:102EA000FFF7CEFF84498548FFF7CAFF844985486C
:102EB000FFF7C6FF84498548FFF7C2FF844985486C
:102EC000FFF7BEFF84498548FFF7BAFF844985486C
:102ED000FFF7B6FF84498548FFF7B2FF844985486C
:102EE000FFF7AEFF84498548FFF7AAFF844985486C
:102EF000FFF7A6FF84498548FFF7A2FF844985486C
:102F0000FFF79EFF84498548FFF79AFF844985486B
:102F1000FFF796FF84498548FFF792FF844985486B
:102F2000FFF78EFF84498548FFF78AFF844985486B
:102F3000FFF786FF84498548FFF782FF844985486B
:102F4000FFF77EFF84498548FFF77AFF844985486B
:102F5000FFF776FF84498548FFF772FF844985486B
:102F6000FFF76EFF84498548FFF76AFF844985486B
:102F7000FFF766FF84498548FFF762FF844985486B
:102F8000FFF75EFF84498548FFF75AFF844985486B
:102F9000FFF756FF84498548FFF752FF844985486B
:102FA000FFF74EFF84498548FFF74AFF844985486B
:102FB000FFF746FF84498548FFF742FF844985486B
:102FC000FFF73EFF84498548FFF73AFF844985486B
:102FD000FFF736FF84498548FFF732FF844985486B
:102FE000FFF72EFF84498548FFF72AFF844985486B
:102FF000FFF726FF84498548FFF722FF844985486B
:10300000FFF71EFF24498448FFF71AFF244983482D
:10301000FFF716FF24498248FFF712FF2449814831
:10302000FFF70EFF24498048FFF70AFF24497F4835
:10303000FFF706FF24497E48FFF702FF24497D4839
:10304000FFF7FEFE24497C48FFF7FAFE24497B483F
:10305000FFF7F6FE24497A48FFF7F2FE2449794843
:10306000FFF7EEFE24497848FFF7EAFE2449774847
:10307000FFF7E6FE24497648FFF7E2FE244975484B
:10308000FFF7DEFE24497448FFF7DAFE244973484F
:10309000FFF7D6FE00BF80BD7C0400201C40000866
:1030A0008C040020204000089C04002024400008DC
:1030B000AC0400202C400008BC0400203040000874
:1030C000CC04002034400008DC0400203840000814
:1030D000EC0400203C400008FC04002040400008B4
:1030E0000C050020444000081C0500204840000852
:1030F0002C0500204C4000083C05002050400008F2
:103100004C050020544000085C0500205840000891
:103110006C0500205C4000087C0500206040000831
:103120008C050020644000089C05002068400008D1
:10313000AC0500206C400008BC0500207040000871
:10314000CC05002074400008DC0500207840000811
:10315000EC0500207C400008FC05002080400008B1
:103160000C060020844000081C060020884000084F
:103170002C0600208C4000083C06002090400008EF
:103180004C060020944000085C060020984000088F
:103190006C0600209C4000087C060020A04000082F
:1031A0008C060020A44000089C060020A8400008CF
:1031B000AC060020AC400008BC060020B04000086F
:1031C000CC060020B4400008DC060020B84000080F
:1031D000EC060020BC400008FC060020C0400008AF
:1031E0000C070020C44000081C070020C84000084D
:1031F0002C070020CC4000083C070020D0400008ED
:103200004C070020D44000085C070020D84000088C
:103210006C070020DC400008E0400008E4400008A3
:10322000E8400008EC400008F0400008F4400008C6
:10323000F8400008FC400008004100080441000874
:103240000C410008144100081C41000824410008FA
:103250002C410008344100083C410008444100086A
:10326000B0B5ADF5905D84B000AF024607F1100334
:10327000093B1A70FDF7A6F800210020FDF76CF855
:10328000CC48FDF787F9FEF7AFFCFEF78BFF81E135
:10329000FEF7E0FE002307F5905202F10F021370D3
:1032A00038E0002307F5905202F10E0213701FE080
:1032B00007F5905303F10F03197807F5905303F1C5
:1032C0000E03187807F11002043A0B465B000B441A
:1032D0001B010344002122F8131007F5905303F15A
:1032E0000E031B78013307F5905202F10E021370A2
:1032F00007F5905303F10E031B782F2BD8D907F550
:10330000905303F10F031B78013307F5905202F13C
:103310000F02137007F5905303F10F031B782F2B47
:10332000BFD90020FEF7C4FF002307F5905202F139
:103330000E02137031E007F5905303F10F03197873
:1033400007F5905303F10E03187807F5905303F136
:103350000F031A7807F5905303F10E031C78964D6E
:1033600013465B0013441B01234435F8134007F157
:103370001002043A0B465B000B441B010344214638
:1033800022F8131007F5905303F10E031B78013355
:1033900007F5905202F10E02137007F5905303F1F6
:1033A0000E031B782F2BC6D92F20FEF781FF07F1C4
:1033B0001003043BB3F85E207F4BA3F85E2001238B
:1033C00007F5905202F10D021370002307F5905299
:1033D00002F10C021370002307F5905202F10F0264
:1033E0001370ADE0002307F5905202F10E02137046
:1033F00091E007F5905303F10F031A7807F5905306
:1034000003F10E0319786C4813465B0013441B014B
:103410000B4430F81330002B72D1002307F5905283
:1034200002F10D02137007F5905303F10C031B78A2
:10343000013307F5905202F10C021370FCF7C2FF42
:1034400000210020FCF788FF5C48FDF7A3F800216D
:103450000620FCF781FF07F5905303F10C031B785E
:103460001846FDF7A3F801210020FCF775FF07F5CA
:10347000905303F10F031B781846FDF797F80121CD
:103480000420FCF769FF4E48FDF784F8012106206F
:10349000FCF762FF07F5905303F10E031B78184603
:1034A000FDF784F8474B1B78012B18D10121092027
:1034B000FCF752FF07F5905303F10F031A7807F555
:1034C000905303F10E0319783F4813465B001344F1
:1034D0001B010B4430F813301846FDF767F84FF422
:1034E00080413A48FDF7EEF90346DAB2384B1A70DC
:1034F000374B1B78012B17D04FF42F7000F0DEFBF9
:1035000007F5905303F10E031B78013307F5905232
:1035100002F10E02137007F5905303F10E031B78AE
:103520002F2B7FF666AF00E000BF07F5905303F145
:103530000F031B78013307F5905202F10F0213704D
:1035400007F5905303F10F031B78002B3FF44AAFAC
:1035500007F5905303F10D031B78012B1AD11D4B76
:103560001B78012B16D1FCF72DFF00210020FCF762
:10357000F3FE1948FDF70EF800BF4FF480411348E1
:10358000FDF7A0F90346DAB2114B1A70104B1B7805
:10359000002BF2D04FF480410C48FDF793F903461D
:1035A000002B3FF475AE00BF07F590571037BD46AE
:1035B000B0BD00BF4C410008DC070020603F0008A0
:1035C000683F0008DC1900209C1B0020001001400F
:1035D0006C040020A43100206041000880B584B054
:1035E00000AF03460A46FB8013467B71FB88194AED
:1035F00032F813303B810023FB720323BB7207F1C7
:10360000080319461448FDF7A1F8FB88134AD15C5A
:10361000002301221248FDF753FF1148FDF7E4FE95
:1036200000BF0F48FDF7F0FE0346002BF9D10C4810
:10363000FDF702FF00BF0A48FDF70EFF0346002B0F
:10364000F9D1FFF73BFB0346FB81002318461037F7
:10365000BD4680BDB843002000080140A8310020CD
:103660000024014080B582B000AF0023FB7100232D
:10367000BB7100237B71FCF7A5FE00210020FCF745
:103680006BFEAD48FCF786FF01210020FCF764FECD
:10369000AA48FCF77FFFCFE20023FB710023BB7138
:1036A00048E0FCF78FFE00210020FCF755FEA448FF
:1036B000FCF770FF01210020FCF74EFEBB79012BC7
:1036C0000AD1A04B1B78002B03D19E4B01221A700C
:1036D00002E09C4B00221A709A4B1B78002B03D1FE
:1036E0009948FCF757FF02E09848FCF753FF4FF466
:1036F00000419748FDF7E6F80346BB714FF40051CF
:103700009348FDF7DFF80346FB714FF48041904882
:10371000FDF7D8F803467B71FB79012B06D0BB7906
:10372000012B03D07B79012B00D0E0E74FF4FA7036
:1037300000F0C4FAFB79002B02D17B79002BB0D0CA
:103740000023FB710023BB7143E0FCF73BFE00212B
:103750000020FCF701FE7F48FCF71CFF0121002040
:10376000FCF7FAFDBB79012B05D17B4B1B78DB43C2
:10377000DAB2794B1A70784B1B78002B03D177485B
:10378000FCF708FF02E07648FCF704FF4FF4004125
:103790006F48FDF797F80346BB714FF400516C4832
:1037A000FDF790F80346FB714FF480416848FDF740
:1037B00089F803467B71FB79012B06D0BB79012B7D
:1037C00003D07B79012B00D0E0E74FF4967000F036
:1037D00075FAFB79002B02D17B79002BB5D0002341
:1037E000FB710023BB7148E0FCF7ECFD00210020D9
:1037F000FCF7B2FD5B48FCF7CDFE01210020FCF791
:10380000ABFDBB79012B09D1574B1B780133DAB2E1
:10381000554B1A70544B1A78534B1A70524B1B78F5
:10382000302B02D1504B00221A704F4B1B78184698
:10383000FCF7BCFE4FF400414548FDF743F8034652
:10384000BB714FF400514248FDF73CF80346FB7151
:103850004FF480413E48FDF735F803467B71FB7914
:10386000012B06D0BB79012B03D07B79012B00D033
:10387000E0E74FF4967000F021FAFB79002B02D1BB
:103880007B79002BB0D00023FB710023BB7148E093
:10389000FCF798FD00210020FCF75EFD3348FCF7A3
:1038A00079FE01210020FCF757FDBB79012B09D1DE
:1038B0002F4B1B780133DAB22D4B1A702C4B1A7830
:1038C0002B4B1A702A4B1B78302B02D1284B00222D
:1038D0001A70274B1B781846FCF768FE4FF400411E
:1038E0001B48FCF7EFFF0346BB714FF4005118482B
:1038F000FCF7E8FF0346FB714FF480411448FCF7E6
:10390000E1FF03467B71FB79012B06D0BB79012BCC
:1039100003D07B79012B00D0E0E74FF4967000F0E4
:10392000CDF9FB79002B02D17B79002BB0D000239D
:10393000FB710023BB7166E070410008784100080C
:103940008C410008A4310020A0410008B4410008C7
:1039500000100140C0410008D41A0020D8410008DE
:10396000E4410008EC4100089C2D0020FC410008C7
:10397000B4430020FCF726FD00210020FCF7ECFCFE
:103980009D48FCF707FE01210020FCF7E5FCBB7910
:10399000012B09D1994B1B780133DAB2974B1A707E
:1039A000964B1A78954B1A70944B1B78302B02D19A
:1039B000924B00221A70914B1B781846FCF7F6FDCB
:1039C0004FF400418E48FCF77DFF0346BB714FF476
:1039D00000518B48FCF776FF0346FB714FF48041A2
:1039E0008748FCF76FFF03467B71FB79012B06D0FC
:1039F000BB79012B03D07B79012B00D0E0E74FF49A
:103A0000967000F05BF9FB79002B02D17B79002BDB
:103A1000B0D00023FB710023BB7145E0FCF7D2FC62
:103A200000210020FCF798FC7648FCF7B3FD01214B
:103A30000020FCF791FCBB79012B05D1724B1B8850
:103A400032339AB2704B1A806F4B1B88B3F5FA6F02
:103A500002D16D4B00221A806B4B1B881846FCF775
:103A6000A5FD4FF400416648FCF72CFF0346BB71EF
:103A70004FF400516248FCF725FF0346FB714FF4F9
:103A800080415F48FCF71EFF03467B71FB79012BE9
:103A900006D0BB79012B03D07B79012B00D0E0E766
:103AA0004FF4967000F00AF9FB79002B02D17B7974
:103AB000002BB3D00023FB710023BB7148E0FCF75F
:103AC00081FC00210020FCF747FC5048FCF762FD18
:103AD00001210020FCF740FCBB79012B09D14C4BA4
:103AE0001B780133DAB24A4B1A70494B1A78484BAB
:103AF0001A70424B1B78032B02D1454B00221A70DF
:103B0000434B1B781846FCF751FD4FF400413C48ED
:103B1000FCF7D8FE0346BB714FF400513848FCF760
:103B2000D1FE0346FB714FF480413548FCF7CAFED5
:103B300003467B71FB79012B06D0BB79012B03D0A7
:103B40007B79012B00D0E0E74FF4967000F0B6F8D7
:103B5000FB79002B02D17B79002BB0D00023FB71C5
:103B60000023BB7162E0FCF72DFC00210020FCF774
:103B7000F3FB2848FCF70EFD01210020FCF7ECFBCD
:103B8000BB79012B0ED1244B1B78002B03D1224B88
:103B900001221A7006E0204B1B78012B02D11E4B2C
:103BA00000221A701C4B1B78002B03D11B48FCF71A
:103BB000F1FC02E01A48FCF7EDFC4FF4004110481C
:103BC000FCF780FE0346BB714FF400510C48FCF734
:103BD00079FE0346FB714FF480410948FCF772FE01
:103BE00003467B71FB79012B1CD0BB79012B19D0CB
:103BF0007B79012B16D0E0E70C420008A81A0020C0
:103C00000010014020420008AC1A00203042000899
:103C1000CE43002040420008DC1900205442000836
:103C20005C4200084FF4967000F048F8FB79002BD6
:103C300002D17B79002B96D07B79002B3FF42CAD01
:103C4000104B1A78104B1A70104B1A780E4B5A7092
:103C50000F4B1A780C4B9A700E4B1A780A4BDA708D
:103C60000D4B1A78084B1A710C4B1B88DAB2064BB5
:103C70005A710A4B1B88DAB2034B9A7100BF08379E
:103C8000BD4680BDA4310020B01A0020D41A002007
:103C90009C2D0020B4430020A81A0020AC1A00205C
:103CA00080B400AF044B1B680133034A136000BFAC
:103CB000BD4680BC704700BF7004002080B483B054
:103CC00000AF7860094B00229A60094B00221A600D
:103CD00000BF7B68A3F10A02054B1B689A42F8D823
:103CE00000BF0C37BD4680BC704700BF10E000E04D
:103CF0007004002080B485B000AF78603960012383
:103D0000FB6011E03B6803F00103002B04D0FB686B
:103D10007A6802FB03F3FB607B687A6802FB03F3BB
:103D20007B603B685B103B603B68002BEAD1FB6823
:103D300018461437BD4680BC704700BF024B13B114
:103D4000024800F005B87047000000005D3D000823
:103D5000002301461A46184600F014B838B5074D3E
:103D6000074C2C1BA41005D0013C55F8043D984786
:103D7000002CF9D1BDE8384000F05CB84C040020BC
:103D8000480400202DE9F047254C06462568884662
:103D9000D5F8484192469946C4B360681F2817DC9D
:103DA000411C76B104EB8003C3F888A0D4F8885195
:103DB000012282401543022EC4F88851C3F80891AD
:103DC0001ED0831C6160002044F82380BDE8F0878A
:103DD000144B03B34FF4C870AFF300800446D0B166
:103DE000D5F84831002784E888003846C5F84841AE
:103DF0000121C4F88871C4F88C71002EE1D0D1E79C
:103E0000D4F88C311A43C4F88C21DAE705F5A6748E
:103E1000C5F84841C1E74FF0FF30BDE8F08700BF6B
:103E20006842000800000000F8B500BFF8BC08BCFC
:103E30009E467047F8B500BFF8BC08BC9E46704768
:103E40004572726F7220657863657074696F6E7306
:103E50000000000044656661756C745F48616E64C3
:103E60006C6572210000000050726F67426F78200D
:103E7000762E352E3000000031382E30362E32307E
:103E8000313700004853495F436C6F636B5F757354
:103E9000650000004853455F436C6F636B5F75734B
:103EA00065000000504C4C20636C6F636B20736F97
:103EB0007572636500000000434C4B5F56414C2017
:103EC0003D2000004D487A00436F6E6669672041CF
:103ED00044430000436F6E666967204E56494300B5
:103EE0005345545F4D4F4445000000005055534822
:103EF000204341502055502F444F574E00000000A2
:103F00004F50454E00000000534554202D3E2045A3
:103F10004E5445520000000053484F5254000000D8
:103F200050555348000000004C4F41440000000031
:103F3000554152545F574F524B0000005445535463
:103F4000000000004F5054494F4E5300574F524B02
:103F5000204D4F4445204F50454E2E2E2E00000040
:103F60004572726F7200000026000000474F4F44F8
:103F70002E53686F7274204E4F210000574F524BE2
:103F8000204D4F44452053484F525400526573759D
:103F90006C74205377697463680000004D4154527B
:103FA0004958204D4F4445005055534820535749D8
:103FB0005443480053570000200000004F4E0000BB
:103FC0004F464600535749544348205354415445A3
:103FD0000000000054455354000000004144435F7A
:103FE0004C4556454C3000004144435F4C455645D6
:103FF0004C3100004144435F4C4556454C32000073
:10400000526563656976657220646174612E2E2E37
:104010000000000048656C6C6F000000300000007C
:1040200031000000284B76333229000033000000B5
:1040300034000000350000003600000037000000AA
:10404000380000003900000031300000313100003C
:1040500031320000313300003134000031350000CE
:1040600031360000313700003138000031390000AE
:1040700032300000323100003232000032330000B2
:104080003234000032350000323600003237000092
:104090003238000032390000333000003331000084
:1040A0003332000033330000333400003335000076
:1040B0003336000033370000333800003339000056
:1040C000343000003431000034320000343300005A
:1040D000343400003435000034360000343700003A
:1040E0004B5631004B5632004B5633004B56340082
:1040F0004B5635004B5636004B5637004B56380062
:104100004B5639004B563130000000004B563131D0
:10411000000000004B563132000000004B56313396
:10412000000000004B563134000000004B56313582
:10413000000000004B563136000000004B5631376E
:10414000000000004B56313800000000574F524B22
:10415000204D4F4445204C4F41442E2E2E00000050
:10416000474F4F442E5965732053686F7274210076
:104170004F5054494F4E53005055534820434150DF
:104180002055502F444F574E000000005265706577
:10419000746974696F6E735F4F50454E0000000084
:1041A00053746174653A696E66696E6974656C7999
:1041B0000000000053746174653A4F6E636500003F
:1041C0006D61747269785F666F725F76616C696445
:1041D0006174696F6E000000696E66696E6974656E
:1041E0006C7900004F6E636500000000534C435F24
:1041F0006E756D6265725F434800000050494E5F06
:104200004E554C4C5F535749544348004E554D4210
:104210005F424954535F53574954434800000000DC
:104220006164635F6C6576656C5F61646400000067
:104230007365745F6F7074696F6E5F70757368001B
:10424000747970655F746573745F7369676E616CB0
:10425000000000006469676974000000616E616CB1
:0C4260006F670000430000001800002001
:10426C000000000001020304010203040607080910
:10427C0002040608000000000000000004030020F7
:10428C006C030020D403002000000000000000009C
:10429C000000000000000000000000000000000012
:1042AC000000000000000000000000006442000854
:1042BC0000000000000000000000000000000000F2
:1042CC0000000000000000000000000000000000E2
:1042DC0000000000000000000000000000000000D2
:1042EC0000000000000000000000000000000000C2
:1042FC0000000000000000000000000000000000B2
:10430C0000000000000000000000000000000000A1
:10431C000000000000000000000000000000000091
:10432C0001000000000000000E33CDAB34126DE62E
:10433C00ECDE05000B000000000000000000000097
:10434C000000000000000000000000000000000061
:10435C000000000000000000000000000000000051
:10436C000000000000000000000000000000000041
:10437C000000000000000000000000000000000031
:1046AC003D3D0008310100080D010008000000002C
:0400000508000000EF
:00000001FF
